{
  "hex": "0200000000021c05a5631b64757d613294067c5c5cb9a4e6d5691f7f616d02d6ce75546d283a000000006b4830450221009557770dd9e626101d8cd49c02a52c76bfbd9d964c570389fc5b851f0a33ac97022023a81d9705c1f9f9ec57dc20e4e6a1988fd51c263e889678aaefff8da791ea53012102f57d9c5b98ffbcff7456ed7d2b20ce644f98d476053ea1d8c89785dc3ddb8979feffffff1c05a5631b64757d613294067c5c5cb9a4e6d5691f7f616d02d6ce75546d283a010000006a4730440220447cb20ba0b963bae26569743d350a5ad05a442e4a9104d32496e133fd68ce1402204283f3647beee99d662d51913b5bf5671a9bf8992ddf29dd3896bc1cbddb8100012102769ca9194ad0b92dab15421ae5deae4a1c055885ffa79394092b8ad6e3933e3afeffffff04019118e4fc64c253e738ae22e47365934ab0f675b714ef9aaef1a784ce4571caa90100038d7e7b0d5900001976a914aba0084af8920f82e12a2351f5cde0f82f1e759a88ac019118e4fc64c253e738ae22e47365934ab0f675b714ef9aaef1a784ce4571caa9010000000029b92700001976a91446b14979980b3db938d5c48a57c0b5ba56d4be2888ac018f9390e4c7b981e355aed3c5690e17c2e13bb263246a55d8039813cac670c2f101000000746a524458001976a914fbb2aacaa303fe511f3bece0c8b68adeba44e42588ac018f9390e4c7b981e355aed3c5690e17c2e13bb263246a55d8039813cac670c2f1010000000000002b98000000000000",
  "txid": "eccbe2cd56a50d0eb4f0b79d06a2d0fefab44c39135f5e3ebaa7fcfde1e640da",
  "hash": "eccbe2cd56a50d0eb4f0b79d06a2d0fefab44c39135f5e3ebaa7fcfde1e640da",
  "withash": "938e3a9b5bac410e812d08db74c4ef2bc58d1ed99d94b637cab0ac2e9eb59df8",
  "size": 557,
  "vsize": 557,
  "version": 2,
  "locktime": 0,
  "vin": [
    {
      "txid": "3a286d5475ced6026d617f1f69d5e6a4b95c5c7c069432617d75641b63a5051c",
      "vout": 0,
      "scriptSig": {
        "asm": "30450221009557770dd9e626101d8cd49c02a52c76bfbd9d964c570389fc5b851f0a33ac97022023a81d9705c1f9f9ec57dc20e4e6a1988fd51c263e889678aaefff8da791ea53[ALL] 02f57d9c5b98ffbcff7456ed7d2b20ce644f98d476053ea1d8c89785dc3ddb8979",
        "hex": "4830450221009557770dd9e626101d8cd49c02a52c76bfbd9d964c570389fc5b851f0a33ac97022023a81d9705c1f9f9ec57dc20e4e6a1988fd51c263e889678aaefff8da791ea53012102f57d9c5b98ffbcff7456ed7d2b20ce644f98d476053ea1d8c89785dc3ddb8979"
      },
      "is_pegin": false,
      "sequence": 4294967294
    },
    {
      "txid": "3a286d5475ced6026d617f1f69d5e6a4b95c5c7c069432617d75641b63a5051c",
      "vout": 1,
      "scriptSig": {
        "asm": "30440220447cb20ba0b963bae26569743d350a5ad05a442e4a9104d32496e133fd68ce1402204283f3647beee99d662d51913b5bf5671a9bf8992ddf29dd3896bc1cbddb8100[ALL] 02769ca9194ad0b92dab15421ae5deae4a1c055885ffa79394092b8ad6e3933e3a",
        "hex": "4730440220447cb20ba0b963bae26569743d350a5ad05a442e4a9104d32496e133fd68ce1402204283f3647beee99d662d51913b5bf5671a9bf8992ddf29dd3896bc1cbddb8100012102769ca9194ad0b92dab15421ae5deae4a1c055885ffa79394092b8ad6e3933e3a"
      },
      "is_pegin": false,
      "sequence": 4294967294
    }
  ],
  "vout": [
    {
      "value": 999999300000000,
      "asset": "a9ca7145ce84a7f1ae9aef14b775f6b04a936573e422ae38e753c264fce41891",
      "n": 0,
      "scriptPubKey": {
        "asm": "OP_DUP OP_HASH160 aba0084af8920f82e12a2351f5cde0f82f1e759a OP_EQUALVERIFY OP_CHECKSIG",
        "hex": "76a914aba0084af8920f82e12a2351f5cde0f82f1e759a88ac",
        "reqSigs": 1,
        "type": "pubkeyhash",
        "addresses": "1GeUG3piiMBZ6Ltym2Dc5TQ6ue1Etwd5Mj"
      }
    },
    {
      "value": 700000000,
      "asset": "a9ca7145ce84a7f1ae9aef14b775f6b04a936573e422ae38e753c264fce41891",
      "n": 1,
      "scriptPubKey": {
        "asm": "OP_DUP OP_HASH160 46b14979980b3db938d5c48a57c0b5ba56d4be28 OP_EQUALVERIFY OP_CHECKSIG",
        "hex": "76a91446b14979980b3db938d5c48a57c0b5ba56d4be2888ac",
        "reqSigs": 1,
        "type": "pubkeyhash",
        "addresses": "17SngYeZXJLmwmcoQT5tYFnNjMJvktoMmK"
      }
    },
    {
      "value": 499999982680,
      "asset": "f1c270c6ca139803d8556a2463b23be1c2170e69c5d3ae55e381b9c7e490938f",
      "n": 2,
      "scriptPubKey": {
        "asm": "OP_DUP OP_HASH160 fbb2aacaa303fe511f3bece0c8b68adeba44e425 OP_EQUALVERIFY OP_CHECKSIG",
        "hex": "76a914fbb2aacaa303fe511f3bece0c8b68adeba44e42588ac",
        "reqSigs": 1,
        "type": "pubkeyhash",
        "addresses": "1PwreALUZ3X2VYnjbaLmKtkvx4nnfA9yUu"
      }
    },
    {
      "value": 11160,
      "asset": "f1c270c6ca139803d8556a2463b23be1c2170e69c5d3ae55e381b9c7e490938f",
      "n": 3,
      "scriptPubKey": {
        "asm": "",
        "hex": "",
        "type": "fee"
      }
    }
  ],
  "blockhash": "3a41ccbe8eba451aa2f8bfe5af6630161f1e0c6db84ed7d0664db66e7f61784e",
  "confirmations": 15,
  "time": 1533200460,
  "blocktime": 1533200460
}